00E000002000000117/05/20180008267567SIS SOLUCOES INTEGRADAS      S00000100000000000006200000200000060                                                                                                                                                                                                                                                                                                                                                                                                                                                                                                                                                                                                                                                                                                                                                                                                                                                                                                                                   
01E0000020000001000000000000000410000RF000000000004120171009201810090100000000000000000                                                                                                                                                                                                                                                                                                                                                                                                                                                                                                                                                                                                                                                                                                                                                                                                                                                                                                                                                 
02E000002000000100000000000000041                                                            F00030556646800000000000999999999983                                                 RUA ATALAIA                              VILA GOMES      RIBEIRAO PIRES09403150SP            5                     RG                           01BRASIL                                                                F00030556646800000000000999999999983                                                 RUA ATALAIA                              VILA GOMES      RIBEIRAO PIRES09403150SP            5                     RG                           01BRASIL                                                                                                                                                                                                                                                                                                                                                                                 
08E0000020000001000000000000000410000010000000000002400000000000000000                              0000000000000000000000                                                                                         09403150                                       RUA ATALAIA                                                                           RIBEIRAO PIRES                    VILA GOMES100030556646800                                                                                                                                                                                                                                                                                                                      010000000000000000000000000000000000000                    N                                                                                                                                                                                                                                   
01E0000020000002000000000000000410000RF000000000004120171009201810090100000000000000000                                                                                                                                                                                                                                                                                                                                                                                                                                                                                                                                                                                                                                                                                                                                                                                                                                                                                                                                                 
02E000002000000200000000000000041                                                            F00030556646800000000000999999999983                                                 RUA ATALAIA                              VILA GOMES      RIBEIRAO PIRES09403150SP            5                     RG                           01BRASIL                                                                F00030556646800000000000999999999983                                                 RUA ATALAIA                              VILA GOMES      RIBEIRAO PIRES09403150SP            5                     RG                           01BRASIL                                                                                                                                                                                                                                                                                                                                                                                 
08E0000020000002000000000000000410000010000000000002400000000000000000                              0000000000000000000000                                                                                         09403150                                       RUA ATALAIA                                                                           RIBEIRAO PIRES                    VILA GOMES100030556646800                                                                                                                                                                                                                                                                                                                      010000000000000000000000000000000000000                    N                                                                                                                                                                                                                                   
01E0000020000003000000000000000410000RF000000000004120171009201810090100000000000000000                                                                                                                                                                                                                                                                                                                                                                                                                                                                                                                                                                                                                                                                                                                                                                                                                                                                                                                                                 
02E000002000000300000000000000041                                                            F00030556646800000000000999999999983                                                 RUA ATALAIA                              VILA GOMES      RIBEIRAO PIRES09403150SP            5                     RG                           01BRASIL                                                                F00030556646800000000000999999999983                                                 RUA ATALAIA                              VILA GOMES      RIBEIRAO PIRES09403150SP            5                     RG                           01BRASIL                                                                                                                                                                                                                                                                                                                                                                                 
08E0000020000003000000000000000410000010000000000002400000000000000000                              0000000000000000000000                                                                                         09403150                                       RUA ATALAIA                                                                           RIBEIRAO PIRES                    VILA GOMES100030556646800                                                                                                                                                                                                                                                                                                                      010000000000000000000000000000000000000                    N                                                                                                                                                                                                                                   
01E0000020000004000000000001000490000RF000000010004920170914201809140100000000000000000                                                                                                                                                                                                                                                                                                                                                                                                                                                                                                                                                                                                                                                                                                                                                                                                                                                                                                                                                 
02E000002000000400000000000100049                                                            F00000000000000000000000999999999983                                                 RUA ATALAIA                              VILA GOMES                  SP09403150SP    114824155                     RG                           01BRASIL                                                                F00000000000000000000000999999999983                                                 RUA ATALAIA                              VILA GOMES                  SP09403150SP    114824155                     RG                           01BRASIL                                                                                                                                                                                                                                                                                                                                                                                 
08E0000020000004000000000001000490000010000000000002500000000000000000                              0000000000000000000000                                                                                         09403150                                       RUA ATALAIA                                                                                       SP                    VILA GOMES100000000000000                                                                                                                                                                                                                                                                                                                      010000000000000000000000000000011482415                    N                                                                                                                                                                                                                                   
01E0000020000005000000000001000500000RF000000010005020171020201810200100000000000000000                                                                                                                                                                                                                                                                                                                                                                                                                                                                                                                                                                                                                                                                                                                                                                                                                                                                                                                                                 
02E000002000000500000000000100050                                                            F00000000000000000000000999999999983                                                 RUA ATALAIA                              VILA GOMES                  SP09403150SP            5                     RG                           01BRASIL                                                                F00000000000000000000000999999999983                                                 RUA ATALAIA                              VILA GOMES                  SP09403150SP            5                     RG                           01BRASIL                                                                                                                                                                                                                                                                                                                                                                                 
08E0000020000005000000000001000500000010000000000002600000000000000000                              0000000000000000000000                                                                                         09403150                                       RUA ATALAIA                                                                                       SP                    VILA GOMES100000000000000                                                                                                                                                                                                                                                                                                                      010000000000000000000000000000000000000                    N                                                                                                                                                                                                                                   
01E0000020000006000000000000000010000RF000000000000120171030201810300100000000000000000                                                                                                                                                                                                                                                                                                                                                                                                                                                                                                                                                                                                                                                                                                                                                                                                                                                                                                                                                 
02E000002000000600000000000000001                                                            F00030556646800000000000999999999983                                                 RUA ATALAIA                              VILA GOMES      RIBEIRAO PIRES09403150SP    112038245                     RG                           01BRASIL                                                                F00030556646800000000000999999999983                                                 RUA ATALAIA                              VILA GOMES      RIBEIRAO PIRES09403150SP    112038245                     RG                           01BRASIL                                                                                                                                                                                                                                                                                                                                                                                 
08E0000020000006000000000000000010000010000000000002700000000000000000                              0000000000000000000000                                                                                         09403150                                       RUA ATALAIA                                                                           RIBEIRAO PIRES                    VILA GOMES100030556646800                                                                                                                                                                                                                                                                                                                      010000000000000000000000000000011203824                    N                                                                                                                                                                                                                                   
01E0000020000007000000000000000010000RF000000000000120171030201810300100000000000000000                                                                                                                                                                                                                                                                                                                                                                                                                                                                                                                                                                                                                                                                                                                                                                                                                                                                                                                                                 
02E000002000000700000000000000001                                                            F00030556646800000000000999999999983                                                 RUA ATALAIA                              VILA GOMES      RIBEIRAO PIRES09403150SP    112038245                     RG                           01BRASIL                                                                F00030556646800000000000999999999983                                                 RUA ATALAIA                              VILA GOMES      RIBEIRAO PIRES09403150SP    112038245                     RG                           01BRASIL                                                                                                                                                                                                                                                                                                                                                                                 
08E0000020000007000000000000000010000010000000000002700000000000000000                              0000000000000000000000                                                                                         09403150                                       RUA ATALAIA                                                                           RIBEIRAO PIRES                    VILA GOMES100030556646800                                                                                                                                                                                                                                                                                                                      010000000000000000000000000000011203824                    N                                                                                                                                                                                                                                   
01E0000020000008000000000000000010000RF000000000000120171030201810300100000000000000000                                                                                                                                                                                                                                                                                                                                                                                                                                                                                                                                                                                                                                                                                                                                                                                                                                                                                                                                                 
02E000002000000800000000000000001                                                            F00030556646800000000000999999999983                                                 RUA ATALAIA                              VILA GOMES      RIBEIRAO PIRES09403150SP    112038245                     RG                           01BRASIL                                                                F00030556646800000000000999999999983                                                 RUA ATALAIA                              VILA GOMES      RIBEIRAO PIRES09403150SP    112038245                     RG                           01BRASIL                                                                                                                                                                                                                                                                                                                                                                                 
08E0000020000008000000000000000010000010000000000002700000000000000000                              0000000000000000000000                                                                                         09403150                                       RUA ATALAIA                                                                           RIBEIRAO PIRES                    VILA GOMES100030556646800                                                                                                                                                                                                                                                                                                                      010000000000000000000000000000011203824                    N                                                                                                                                                                                                                                   
01E0000020000009000000000000000020000RF000000000000220171030201810300100000000000000000                                                                                                                                                                                                                                                                                                                                                                                                                                                                                                                                                                                                                                                                                                                                                                                                                                                                                                                                                 
02E000002000000900000000000000002                                                            F00030556646800000000000999999999983                                                 RUA ATALAIA                              VILA GOMES      RIBEIRAO PIRES09403150SP            5                     RG                           01BRASIL                                                                F00030556646800000000000999999999983                                                 RUA ATALAIA                              VILA GOMES      RIBEIRAO PIRES09403150SP            5                     RG                           01BRASIL                                                                                                                                                                                                                                                                                                                                                                                 
08E0000020000009000000000000000020000010000000000002800000000000000000                              0000000000000000000000                                                                                         09403150                                       RUA ATALAIA                                                                           RIBEIRAO PIRES                    VILA GOMES100030556646800                                                                                                                                                                                                                                                                                                                      010000000000000000000000000000000000000                    N                                                                                                                                                                                                                                   
01E0000020000010000000000000000020000RF000000000000220171030201810300100000000000000000                                                                                                                                                                                                                                                                                                                                                                                                                                                                                                                                                                                                                                                                                                                                                                                                                                                                                                                                                 
02E000002000001000000000000000002                                                            F00030556646800000000000999999999983                                                 RUA ATALAIA                              VILA GOMES      RIBEIRAO PIRES09403150SP            5                     RG                           01BRASIL                                                                F00030556646800000000000999999999983                                                 RUA ATALAIA                              VILA GOMES      RIBEIRAO PIRES09403150SP            5                     RG                           01BRASIL                                                                                                                                                                                                                                                                                                                                                                                 
08E0000020000010000000000000000020000010000000000002800000000000000000                              0000000000000000000000                                                                                         09403150                                       RUA ATALAIA                                                                           RIBEIRAO PIRES                    VILA GOMES100030556646800                                                                                                                                                                                                                                                                                                                      010000000000000000000000000000000000000                    N                                                                                                                                                                                                                                   
01E0000020000011000000000000000020000RF000000000000220171030201810300100000000000000000                                                                                                                                                                                                                                                                                                                                                                                                                                                                                                                                                                                                                                                                                                                                                                                                                                                                                                                                                 
02E000002000001100000000000000002                                                            F00030556646800000000000999999999983                                                 RUA ATALAIA                              VILA GOMES      RIBEIRAO PIRES09403150SP            5                     RG                           01BRASIL                                                                F00030556646800000000000999999999983                                                 RUA ATALAIA                              VILA GOMES      RIBEIRAO PIRES09403150SP            5                     RG                           01BRASIL                                                                                                                                                                                                                                                                                                                                                                                 
08E0000020000011000000000000000020000010000000000002800000000000000000                              0000000000000000000000                                                                                         09403150                                       RUA ATALAIA                                                                           RIBEIRAO PIRES                    VILA GOMES100030556646800                                                                                                                                                                                                                                                                                                                      010000000000000000000000000000000000000                    N                                                                                                                                                                                                                                   
01E0000020000012000000000000000010000RF000000000000120171101201811010100000000000000000                                                                                                                                                                                                                                                                                                                                                                                                                                                                                                                                                                                                                                                                                                                                                                                                                                                                                                                                                 
02E000002000001200000000000000001                                                            F00030556646800000000000999999999983                                                 RUA ATALAIA                              VILA GOMES      RIBEIRAO PIRES09403150SP            5                     RG                           01BRASIL                                                                F00030556646800000000000999999999983                                                 RUA ATALAIA                              VILA GOMES      RIBEIRAO PIRES09403150SP            5                     RG                           01BRASIL                                                                                                                                                                                                                                                                                                                                                                                 
08E0000020000012000000000000000010000010000000000003000000000000000000                              0000000000000000000000                                                                                         09403150                                       RUA ATALAIA                                                                           RIBEIRAO PIRES                    VILA GOMES100030556646800                                                                                                                                                                                                                                                                                                                      010000000000000000000000000000000000000                    N                                                                                                                                                                                                                                   
01E0000020000013000000000000000010000RF000000000000120171101201811010100000000000000000                                                                                                                                                                                                                                                                                                                                                                                                                                                                                                                                                                                                                                                                                                                                                                                                                                                                                                                                                 
02E000002000001300000000000000001                                                            F00030556646800000000000999999999983                                                 RUA ATALAIA                              VILA GOMES      RIBEIRAO PIRES09403150SP            5                     RG                           01BRASIL                                                                F00030556646800000000000999999999983                                                 RUA ATALAIA                              VILA GOMES      RIBEIRAO PIRES09403150SP            5                     RG                           01BRASIL                                                                                                                                                                                                                                                                                                                                                                                 
08E0000020000013000000000000000010000010000000000003000000000000000000                              0000000000000000000000                                                                                         09403150                                       RUA ATALAIA                                                                           RIBEIRAO PIRES                    VILA GOMES100030556646800                                                                                                                                                                                                                                                                                                                      010000000000000000000000000000000000000                    N                                                                                                                                                                                                                                   
01E0000020000014000000000000000010000RF000000000000120171101201811010100000000000000000                                                                                                                                                                                                                                                                                                                                                                                                                                                                                                                                                                                                                                                                                                                                                                                                                                                                                                                                                 
02E000002000001400000000000000001                                                            F00030556646800000000000999999999983                                                 RUA ATALAIA                              VILA GOMES      RIBEIRAO PIRES09403150SP            5                     RG                           01BRASIL                                                                F00030556646800000000000999999999983                                                 RUA ATALAIA                              VILA GOMES      RIBEIRAO PIRES09403150SP            5                     RG                           01BRASIL                                                                                                                                                                                                                                                                                                                                                                                 
08E0000020000014000000000000000010000010000000000003000000000000000000                              0000000000000000000000                                                                                         09403150                                       RUA ATALAIA                                                                           RIBEIRAO PIRES                    VILA GOMES100030556646800                                                                                                                                                                                                                                                                                                                      010000000000000000000000000000000000000                    N                                                                                                                                                                                                                                   
01E0000020000015000000000000000420000RF000000000004220171101201811010100000000000000000                                                                                                                                                                                                                                                                                                                                                                                                                                                                                                                                                                                                                                                                                                                                                                                                                                                                                                                                                 
02E000002000001500000000000000042                                                            F00030556646800000000000999999999983                                                 RUA ATALAIA                              VILA GOMES      RIBEIRAO PIRES09403150SP            5                     RG                           01BRASIL                                                                F00030556646800000000000999999999983                                                 RUA ATALAIA                              VILA GOMES      RIBEIRAO PIRES09403150SP            5                     RG                           01BRASIL                                                                                                                                                                                                                                                                                                                                                                                 
08E0000020000015000000000000000420000010000000000003100000000000000000                              0000000000000000000000                                                                                         09403150                                       RUA ATALAIA                                                                           RIBEIRAO PIRES                    VILA GOMES100030556646800                                                                                                                                                                                                                                                                                                                      010000000000000000000000000000000000000                    N                                                                                                                                                                                                                                   
01E0000020000016000000000000000420000RF000000000004220171101201811010100000000000000000                                                                                                                                                                                                                                                                                                                                                                                                                                                                                                                                                                                                                                                                                                                                                                                                                                                                                                                                                 
02E000002000001600000000000000042                                                            F00030556646800000000000999999999983                                                 RUA ATALAIA                              VILA GOMES      RIBEIRAO PIRES09403150SP            5                     RG                           01BRASIL                                                                F00030556646800000000000999999999983                                                 RUA ATALAIA                              VILA GOMES      RIBEIRAO PIRES09403150SP            5                     RG                           01BRASIL                                                                                                                                                                                                                                                                                                                                                                                 
08E0000020000016000000000000000420000010000000000003100000000000000000                              0000000000000000000000                                                                                         09403150                                       RUA ATALAIA                                                                           RIBEIRAO PIRES                    VILA GOMES100030556646800                                                                                                                                                                                                                                                                                                                      010000000000000000000000000000000000000                    N                                                                                                                                                                                                                                   
01E0000020000017000000000000000420000RF000000000004220171101201811010100000000000000000                                                                                                                                                                                                                                                                                                                                                                                                                                                                                                                                                                                                                                                                                                                                                                                                                                                                                                                                                 
02E000002000001700000000000000042                                                            F00030556646800000000000999999999983                                                 RUA ATALAIA                              VILA GOMES      RIBEIRAO PIRES09403150SP            5                     RG                           01BRASIL                                                                F00030556646800000000000999999999983                                                 RUA ATALAIA                              VILA GOMES      RIBEIRAO PIRES09403150SP            5                     RG                           01BRASIL                                                                                                                                                                                                                                                                                                                                                                                 
08E0000020000017000000000000000420000010000000000003100000000000000000                              0000000000000000000000                                                                                         09403150                                       RUA ATALAIA                                                                           RIBEIRAO PIRES                    VILA GOMES100030556646800                                                                                                                                                                                                                                                                                                                      010000000000000000000000000000000000000                    N                                                                                                                                                                                                                                   
01E0000020000018000000000000000030000RF000000000000320171101201811010100000000000000000                                                                                                                                                                                                                                                                                                                                                                                                                                                                                                                                                                                                                                                                                                                                                                                                                                                                                                                                                 
02E000002000001800000000000000003                                                            F00030556646800000000000999999999983                                                 RUA ATALAIA                              VILA GOMES      RIBEIRAO PIRES09403150SP            5                     RG                           01BRASIL                                                                F00030556646800000000000999999999983                                                 RUA ATALAIA                              VILA GOMES      RIBEIRAO PIRES09403150SP            5                     RG                           01BRASIL                                                                                                                                                                                                                                                                                                                                                                                 
08E0000020000018000000000000000030000010000000000003200000000000000000                              0000000000000000000000                                                                                         09403150                                       RUA ATALAIA                                                                           RIBEIRAO PIRES                    VILA GOMES100030556646800                                                                                                                                                                                                                                                                                                                      010000000000000000000000000000000000000                    N                                                                                                                                                                                                                                   
01E0000020000019000000000000000030000RF000000000000320171101201811010100000000000000000                                                                                                                                                                                                                                                                                                                                                                                                                                                                                                                                                                                                                                                                                                                                                                                                                                                                                                                                                 
02E000002000001900000000000000003                                                            F00030556646800000000000999999999983                                                 RUA ATALAIA                              VILA GOMES      RIBEIRAO PIRES09403150SP            5                     RG                           01BRASIL                                                                F00030556646800000000000999999999983                                                 RUA ATALAIA                              VILA GOMES      RIBEIRAO PIRES09403150SP            5                     RG                           01BRASIL                                                                                                                                                                                                                                                                                                                                                                                 
08E0000020000019000000000000000030000010000000000003200000000000000000                              0000000000000000000000                                                                                         09403150                                       RUA ATALAIA                                                                           RIBEIRAO PIRES                    VILA GOMES100030556646800                                                                                                                                                                                                                                                                                                                      010000000000000000000000000000000000000                    N                                                                                                                                                                                                                                   
01E0000020000020000000000000000030000RF000000000000320171101201811010100000000000000000                                                                                                                                                                                                                                                                                                                                                                                                                                                                                                                                                                                                                                                                                                                                                                                                                                                                                                                                                 
02E000002000002000000000000000003                                                            F00030556646800000000000999999999983                                                 RUA ATALAIA                              VILA GOMES      RIBEIRAO PIRES09403150SP            5                     RG                           01BRASIL                                                                F00030556646800000000000999999999983                                                 RUA ATALAIA                              VILA GOMES      RIBEIRAO PIRES09403150SP            5                     RG                           01BRASIL                                                                                                                                                                                                                                                                                                                                                                                 
08E0000020000020000000000000000030000010000000000003200000000000000000                              0000000000000000000000                                                                                         09403150                                       RUA ATALAIA                                                                           RIBEIRAO PIRES                    VILA GOMES100030556646800                                                                                                                                                                                                                                                                                                                      010000000000000000000000000000000000000                    N                                                                                                                                                                                                                                   
99E000002000006200000200000060                                                                                                                                                                                                                                                                                                                                                                                                                                                                                                                                                                                                                                                                                                                                                                                                                                                                                                                                                                                                          