00E000001000000116/05/20180008267567SIS SOLUCOES INTEGRADAS      S00000100000000000008000000260000078                                                                                                                                                                                                                                                                                                                                                                                                                                                                                                                                                                                                                                                                                                                                                                                                                                                                                                                                   
01E0000010000001000000000000000370000RF000000000003720171005201810050100000000000000000                                                                                                                                                                                                                                                                                                                                                                                                                                                                                                                                                                                                                                                                                                                                                                                                                                                                                                                                                 
02E000001000000100000000000000037                                                            F00030556646800000000000999999999983                                                 RUA ATALAIA                              VILA GOMES      RIBEIRAO PIRES09403150SP            5                     RG                           01BRASIL                                                                F00030556646800000000000999999999983                                                 RUA ATALAIA                              VILA GOMES      RIBEIRAO PIRES09403150SP            5                     RG                           01BRASIL                                                                                                                                                                                                                                                                                                                                                                                 
08E0000010000001000000000000000370000010000000000001800000000000000000                              0000000000000000000000                                                                                         09403150                                       RUA ATALAIA                                                                           RIBEIRAO PIRES                    VILA GOMES100030556646800                                                                                                                                                                                                                                                                                                                      010000000000000000000000000000000000000                    N                                                                                                                                                                                                                                   
01E0000010000002000000000000000370000RF000000000003720171005201810050100000000000000000                                                                                                                                                                                                                                                                                                                                                                                                                                                                                                                                                                                                                                                                                                                                                                                                                                                                                                                                                 
02E000001000000200000000000000037                                                            F00030556646800000000000999999999983                                                 RUA ATALAIA                              VILA GOMES      RIBEIRAO PIRES09403150SP            5                     RG                           01BRASIL                                                                F00030556646800000000000999999999983                                                 RUA ATALAIA                              VILA GOMES      RIBEIRAO PIRES09403150SP            5                     RG                           01BRASIL                                                                                                                                                                                                                                                                                                                                                                                 
08E0000010000002000000000000000370000010000000000001800000000000000000                              0000000000000000000000                                                                                         09403150                                       RUA ATALAIA                                                                           RIBEIRAO PIRES                    VILA GOMES100030556646800                                                                                                                                                                                                                                                                                                                      010000000000000000000000000000000000000                    N                                                                                                                                                                                                                                   
01E0000010000003000000000000000370000RF000000000003720171005201810050100000000000000000                                                                                                                                                                                                                                                                                                                                                                                                                                                                                                                                                                                                                                                                                                                                                                                                                                                                                                                                                 
02E000001000000300000000000000037                                                            F00030556646800000000000999999999983                                                 RUA ATALAIA                              VILA GOMES      RIBEIRAO PIRES09403150SP            5                     RG                           01BRASIL                                                                F00030556646800000000000999999999983                                                 RUA ATALAIA                              VILA GOMES      RIBEIRAO PIRES09403150SP            5                     RG                           01BRASIL                                                                                                                                                                                                                                                                                                                                                                                 
08E0000010000003000000000000000370000010000000000001800000000000000000                              0000000000000000000000                                                                                         09403150                                       RUA ATALAIA                                                                           RIBEIRAO PIRES                    VILA GOMES100030556646800                                                                                                                                                                                                                                                                                                                      010000000000000000000000000000000000000                    N                                                                                                                                                                                                                                   
01E0000010000004000000000001000480000RF000000010004820170914201809140100000000000000000                                                                                                                                                                                                                                                                                                                                                                                                                                                                                                                                                                                                                                                                                                                                                                                                                                                                                                                                                 
02E000001000000400000000000100048                                                            F00000000000000000000000999999999983                                                 RUA ATALAIA                              VILA GOMES                  SP09403150SP    189964225                     RG                           01BRASIL                                                                F00000000000000000000000999999999983                                                 RUA ATALAIA                              VILA GOMES                  SP09403150SP    189964225                     RG                           01BRASIL                                                                                                                                                                                                                                                                                                                                                                                 
08E0000010000004000000000001000480000010000000000001900000000000000000                              0000000000000000000000                                                                                         09403150                                       RUA ATALAIA                                                                                       SP                    VILA GOMES100000000000000                                                                                                                                                                                                                                                                                                                      010000000000000000000000000000018996422                    N                                                                                                                                                                                                                                   
01E0000010000005000000000000000390000RF000000000003920171009201810090100000000000000000                                                                                                                                                                                                                                                                                                                                                                                                                                                                                                                                                                                                                                                                                                                                                                                                                                                                                                                                                 
02E000001000000500000000000000039                                                            F00030556646800000000000999999999983                                                 RUA ATALAIA                              VILA GOMES      RIBEIRAO PIRES09403150SP            5                     RG                           01BRASIL                                                                F00030556646800000000000999999999983                                                 RUA ATALAIA                              VILA GOMES      RIBEIRAO PIRES09403150SP            5                     RG                           01BRASIL                                                                                                                                                                                                                                                                                                                                                                                 
08E0000010000005000000000000000390000010000000000002200000000000000000                              0000000000000000000000                                                                                         09403150                                       RUA ATALAIA                                                                           RIBEIRAO PIRES                    VILA GOMES100030556646800                                                                                                                                                                                                                                                                                                                      010000000000000000000000000000000000000                    N                                                                                                                                                                                                                                   
01E0000010000006000000000000000400000RF000000000004020171009201810090100000000000000000                                                                                                                                                                                                                                                                                                                                                                                                                                                                                                                                                                                                                                                                                                                                                                                                                                                                                                                                                 
02E000001000000600000000000000040                                                            F00030556646800000000000999999999983                                                 RUA ATALAIA                              VILA GOMES      RIBEIRAO PIRES09403150SP            5                     RG                           01BRASIL                                                                F00030556646800000000000999999999983                                                 RUA ATALAIA                              VILA GOMES      RIBEIRAO PIRES09403150SP            5                     RG                           01BRASIL                                                                                                                                                                                                                                                                                                                                                                                 
08E0000010000006000000000000000400000010000000000002300000000000000000                              0000000000000000000000                                                                                         09403150                                       RUA ATALAIA                                                                           RIBEIRAO PIRES                    VILA GOMES100030556646800                                                                                                                                                                                                                                                                                                                      010000000000000000000000000000000000000                    N                                                                                                                                                                                                                                   
01E0000010000007000000000000000410000RF000000000004120171009201810090100000000000000000                                                                                                                                                                                                                                                                                                                                                                                                                                                                                                                                                                                                                                                                                                                                                                                                                                                                                                                                                 
02E000001000000700000000000000041                                                            F00030556646800000000000999999999983                                                 RUA ATALAIA                              VILA GOMES      RIBEIRAO PIRES09403150SP            5                     RG                           01BRASIL                                                                F00030556646800000000000999999999983                                                 RUA ATALAIA                              VILA GOMES      RIBEIRAO PIRES09403150SP            5                     RG                           01BRASIL                                                                                                                                                                                                                                                                                                                                                                                 
08E0000010000007000000000000000410000010000000000002400000000000000000                              0000000000000000000000                                                                                         09403150                                       RUA ATALAIA                                                                           RIBEIRAO PIRES                    VILA GOMES100030556646800                                                                                                                                                                                                                                                                                                                      010000000000000000000000000000000000000                    N                                                                                                                                                                                                                                   
01E0000010000008000000000000000410000RF000000000004120171009201810090100000000000000000                                                                                                                                                                                                                                                                                                                                                                                                                                                                                                                                                                                                                                                                                                                                                                                                                                                                                                                                                 
02E000001000000800000000000000041                                                            F00030556646800000000000999999999983                                                 RUA ATALAIA                              VILA GOMES      RIBEIRAO PIRES09403150SP            5                     RG                           01BRASIL                                                                F00030556646800000000000999999999983                                                 RUA ATALAIA                              VILA GOMES      RIBEIRAO PIRES09403150SP            5                     RG                           01BRASIL                                                                                                                                                                                                                                                                                                                                                                                 
08E0000010000008000000000000000410000010000000000002400000000000000000                              0000000000000000000000                                                                                         09403150                                       RUA ATALAIA                                                                           RIBEIRAO PIRES                    VILA GOMES100030556646800                                                                                                                                                                                                                                                                                                                      010000000000000000000000000000000000000                    N                                                                                                                                                                                                                                   
01E0000010000009000000000000000410000RF000000000004120171009201810090100000000000000000                                                                                                                                                                                                                                                                                                                                                                                                                                                                                                                                                                                                                                                                                                                                                                                                                                                                                                                                                 
02E000001000000900000000000000041                                                            F00030556646800000000000999999999983                                                 RUA ATALAIA                              VILA GOMES      RIBEIRAO PIRES09403150SP            5                     RG                           01BRASIL                                                                F00030556646800000000000999999999983                                                 RUA ATALAIA                              VILA GOMES      RIBEIRAO PIRES09403150SP            5                     RG                           01BRASIL                                                                                                                                                                                                                                                                                                                                                                                 
08E0000010000009000000000000000410000010000000000002400000000000000000                              0000000000000000000000                                                                                         09403150                                       RUA ATALAIA                                                                           RIBEIRAO PIRES                    VILA GOMES100030556646800                                                                                                                                                                                                                                                                                                                      010000000000000000000000000000000000000                    N                                                                                                                                                                                                                                   
01E0000010000010000000000001000490000RF000000010004920170914201809140100000000000000000                                                                                                                                                                                                                                                                                                                                                                                                                                                                                                                                                                                                                                                                                                                                                                                                                                                                                                                                                 
02E000001000001000000000000100049                                                            F00000000000000000000000999999999983                                                 RUA ATALAIA                              VILA GOMES                  SP09403150SP    114824155                     RG                           01BRASIL                                                                F00000000000000000000000999999999983                                                 RUA ATALAIA                              VILA GOMES                  SP09403150SP    114824155                     RG                           01BRASIL                                                                                                                                                                                                                                                                                                                                                                                 
08E0000010000010000000000001000490000010000000000002500000000000000000                              0000000000000000000000                                                                                         09403150                                       RUA ATALAIA                                                                                       SP                    VILA GOMES100000000000000                                                                                                                                                                                                                                                                                                                      010000000000000000000000000000011482415                    N                                                                                                                                                                                                                                   
01E0000010000011000000000001000500000RF000000010005020171020201810200100000000000000000                                                                                                                                                                                                                                                                                                                                                                                                                                                                                                                                                                                                                                                                                                                                                                                                                                                                                                                                                 
02E000001000001100000000000100050                                                            F00000000000000000000000999999999983                                                 RUA ATALAIA                              VILA GOMES                  SP09403150SP            5                     RG                           01BRASIL                                                                F00000000000000000000000999999999983                                                 RUA ATALAIA                              VILA GOMES                  SP09403150SP            5                     RG                           01BRASIL                                                                                                                                                                                                                                                                                                                                                                                 
08E0000010000011000000000001000500000010000000000002600000000000000000                              0000000000000000000000                                                                                         09403150                                       RUA ATALAIA                                                                                       SP                    VILA GOMES100000000000000                                                                                                                                                                                                                                                                                                                      010000000000000000000000000000000000000                    N                                                                                                                                                                                                                                   
01E0000010000012000000000000000010000RF000000000000120171030201810300100000000000000000                                                                                                                                                                                                                                                                                                                                                                                                                                                                                                                                                                                                                                                                                                                                                                                                                                                                                                                                                 
02E000001000001200000000000000001                                                            F00030556646800000000000999999999983                                                 RUA ATALAIA                              VILA GOMES      RIBEIRAO PIRES09403150SP    112038245                     RG                           01BRASIL                                                                F00030556646800000000000999999999983                                                 RUA ATALAIA                              VILA GOMES      RIBEIRAO PIRES09403150SP    112038245                     RG                           01BRASIL                                                                                                                                                                                                                                                                                                                                                                                 
08E0000010000012000000000000000010000010000000000002700000000000000000                              0000000000000000000000                                                                                         09403150                                       RUA ATALAIA                                                                           RIBEIRAO PIRES                    VILA GOMES100030556646800                                                                                                                                                                                                                                                                                                                      010000000000000000000000000000011203824                    N                                                                                                                                                                                                                                   
01E0000010000013000000000000000010000RF000000000000120171030201810300100000000000000000                                                                                                                                                                                                                                                                                                                                                                                                                                                                                                                                                                                                                                                                                                                                                                                                                                                                                                                                                 
02E000001000001300000000000000001                                                            F00030556646800000000000999999999983                                                 RUA ATALAIA                              VILA GOMES      RIBEIRAO PIRES09403150SP    112038245                     RG                           01BRASIL                                                                F00030556646800000000000999999999983                                                 RUA ATALAIA                              VILA GOMES      RIBEIRAO PIRES09403150SP    112038245                     RG                           01BRASIL                                                                                                                                                                                                                                                                                                                                                                                 
08E0000010000013000000000000000010000010000000000002700000000000000000                              0000000000000000000000                                                                                         09403150                                       RUA ATALAIA                                                                           RIBEIRAO PIRES                    VILA GOMES100030556646800                                                                                                                                                                                                                                                                                                                      010000000000000000000000000000011203824                    N                                                                                                                                                                                                                                   
01E0000010000014000000000000000010000RF000000000000120171030201810300100000000000000000                                                                                                                                                                                                                                                                                                                                                                                                                                                                                                                                                                                                                                                                                                                                                                                                                                                                                                                                                 
02E000001000001400000000000000001                                                            F00030556646800000000000999999999983                                                 RUA ATALAIA                              VILA GOMES      RIBEIRAO PIRES09403150SP    112038245                     RG                           01BRASIL                                                                F00030556646800000000000999999999983                                                 RUA ATALAIA                              VILA GOMES      RIBEIRAO PIRES09403150SP    112038245                     RG                           01BRASIL                                                                                                                                                                                                                                                                                                                                                                                 
08E0000010000014000000000000000010000010000000000002700000000000000000                              0000000000000000000000                                                                                         09403150                                       RUA ATALAIA                                                                           RIBEIRAO PIRES                    VILA GOMES100030556646800                                                                                                                                                                                                                                                                                                                      010000000000000000000000000000011203824                    N                                                                                                                                                                                                                                   
01E0000010000015000000000000000020000RF000000000000220171030201810300100000000000000000                                                                                                                                                                                                                                                                                                                                                                                                                                                                                                                                                                                                                                                                                                                                                                                                                                                                                                                                                 
02E000001000001500000000000000002                                                            F00030556646800000000000999999999983                                                 RUA ATALAIA                              VILA GOMES      RIBEIRAO PIRES09403150SP            5                     RG                           01BRASIL                                                                F00030556646800000000000999999999983                                                 RUA ATALAIA                              VILA GOMES      RIBEIRAO PIRES09403150SP            5                     RG                           01BRASIL                                                                                                                                                                                                                                                                                                                                                                                 
08E0000010000015000000000000000020000010000000000002800000000000000000                              0000000000000000000000                                                                                         09403150                                       RUA ATALAIA                                                                           RIBEIRAO PIRES                    VILA GOMES100030556646800                                                                                                                                                                                                                                                                                                                      010000000000000000000000000000000000000                    N                                                                                                                                                                                                                                   
01E0000010000016000000000000000020000RF000000000000220171030201810300100000000000000000                                                                                                                                                                                                                                                                                                                                                                                                                                                                                                                                                                                                                                                                                                                                                                                                                                                                                                                                                 
02E000001000001600000000000000002                                                            F00030556646800000000000999999999983                                                 RUA ATALAIA                              VILA GOMES      RIBEIRAO PIRES09403150SP            5                     RG                           01BRASIL                                                                F00030556646800000000000999999999983                                                 RUA ATALAIA                              VILA GOMES      RIBEIRAO PIRES09403150SP            5                     RG                           01BRASIL                                                                                                                                                                                                                                                                                                                                                                                 
08E0000010000016000000000000000020000010000000000002800000000000000000                              0000000000000000000000                                                                                         09403150                                       RUA ATALAIA                                                                           RIBEIRAO PIRES                    VILA GOMES100030556646800                                                                                                                                                                                                                                                                                                                      010000000000000000000000000000000000000                    N                                                                                                                                                                                                                                   
01E0000010000017000000000000000020000RF000000000000220171030201810300100000000000000000                                                                                                                                                                                                                                                                                                                                                                                                                                                                                                                                                                                                                                                                                                                                                                                                                                                                                                                                                 
02E000001000001700000000000000002                                                            F00030556646800000000000999999999983                                                 RUA ATALAIA                              VILA GOMES      RIBEIRAO PIRES09403150SP            5                     RG                           01BRASIL                                                                F00030556646800000000000999999999983                                                 RUA ATALAIA                              VILA GOMES      RIBEIRAO PIRES09403150SP            5                     RG                           01BRASIL                                                                                                                                                                                                                                                                                                                                                                                 
08E0000010000017000000000000000020000010000000000002800000000000000000                              0000000000000000000000                                                                                         09403150                                       RUA ATALAIA                                                                           RIBEIRAO PIRES                    VILA GOMES100030556646800                                                                                                                                                                                                                                                                                                                      010000000000000000000000000000000000000                    N                                                                                                                                                                                                                                   
01E0000010000018000000000000000010000RF000000000000120171101201811010100000000000000000                                                                                                                                                                                                                                                                                                                                                                                                                                                                                                                                                                                                                                                                                                                                                                                                                                                                                                                                                 
02E000001000001800000000000000001                                                            F00030556646800000000000999999999983                                                 RUA ATALAIA                              VILA GOMES      RIBEIRAO PIRES09403150SP            5                     RG                           01BRASIL                                                                F00030556646800000000000999999999983                                                 RUA ATALAIA                              VILA GOMES      RIBEIRAO PIRES09403150SP            5                     RG                           01BRASIL                                                                                                                                                                                                                                                                                                                                                                                 
08E0000010000018000000000000000010000010000000000003000000000000000000                              0000000000000000000000                                                                                         09403150                                       RUA ATALAIA                                                                           RIBEIRAO PIRES                    VILA GOMES100030556646800                                                                                                                                                                                                                                                                                                                      010000000000000000000000000000000000000                    N                                                                                                                                                                                                                                   
01E0000010000019000000000000000010000RF000000000000120171101201811010100000000000000000                                                                                                                                                                                                                                                                                                                                                                                                                                                                                                                                                                                                                                                                                                                                                                                                                                                                                                                                                 
02E000001000001900000000000000001                                                            F00030556646800000000000999999999983                                                 RUA ATALAIA                              VILA GOMES      RIBEIRAO PIRES09403150SP            5                     RG                           01BRASIL                                                                F00030556646800000000000999999999983                                                 RUA ATALAIA                              VILA GOMES      RIBEIRAO PIRES09403150SP            5                     RG                           01BRASIL                                                                                                                                                                                                                                                                                                                                                                                 
08E0000010000019000000000000000010000010000000000003000000000000000000                              0000000000000000000000                                                                                         09403150                                       RUA ATALAIA                                                                           RIBEIRAO PIRES                    VILA GOMES100030556646800                                                                                                                                                                                                                                                                                                                      010000000000000000000000000000000000000                    N                                                                                                                                                                                                                                   
01E0000010000020000000000000000010000RF000000000000120171101201811010100000000000000000                                                                                                                                                                                                                                                                                                                                                                                                                                                                                                                                                                                                                                                                                                                                                                                                                                                                                                                                                 
02E000001000002000000000000000001                                                            F00030556646800000000000999999999983                                                 RUA ATALAIA                              VILA GOMES      RIBEIRAO PIRES09403150SP            5                     RG                           01BRASIL                                                                F00030556646800000000000999999999983                                                 RUA ATALAIA                              VILA GOMES      RIBEIRAO PIRES09403150SP            5                     RG                           01BRASIL                                                                                                                                                                                                                                                                                                                                                                                 
08E0000010000020000000000000000010000010000000000003000000000000000000                              0000000000000000000000                                                                                         09403150                                       RUA ATALAIA                                                                           RIBEIRAO PIRES                    VILA GOMES100030556646800                                                                                                                                                                                                                                                                                                                      010000000000000000000000000000000000000                    N                                                                                                                                                                                                                                   
01E0000010000021000000000000000420000RF000000000004220171101201811010100000000000000000                                                                                                                                                                                                                                                                                                                                                                                                                                                                                                                                                                                                                                                                                                                                                                                                                                                                                                                                                 
02E000001000002100000000000000042                                                            F00030556646800000000000999999999983                                                 RUA ATALAIA                              VILA GOMES      RIBEIRAO PIRES09403150SP            5                     RG                           01BRASIL                                                                F00030556646800000000000999999999983                                                 RUA ATALAIA                              VILA GOMES      RIBEIRAO PIRES09403150SP            5                     RG                           01BRASIL                                                                                                                                                                                                                                                                                                                                                                                 
08E0000010000021000000000000000420000010000000000003100000000000000000                              0000000000000000000000                                                                                         09403150                                       RUA ATALAIA                                                                           RIBEIRAO PIRES                    VILA GOMES100030556646800                                                                                                                                                                                                                                                                                                                      010000000000000000000000000000000000000                    N                                                                                                                                                                                                                                   
01E0000010000022000000000000000420000RF000000000004220171101201811010100000000000000000                                                                                                                                                                                                                                                                                                                                                                                                                                                                                                                                                                                                                                                                                                                                                                                                                                                                                                                                                 
02E000001000002200000000000000042                                                            F00030556646800000000000999999999983                                                 RUA ATALAIA                              VILA GOMES      RIBEIRAO PIRES09403150SP            5                     RG                           01BRASIL                                                                F00030556646800000000000999999999983                                                 RUA ATALAIA                              VILA GOMES      RIBEIRAO PIRES09403150SP            5                     RG                           01BRASIL                                                                                                                                                                                                                                                                                                                                                                                 
08E0000010000022000000000000000420000010000000000003100000000000000000                              0000000000000000000000                                                                                         09403150                                       RUA ATALAIA                                                                           RIBEIRAO PIRES                    VILA GOMES100030556646800                                                                                                                                                                                                                                                                                                                      010000000000000000000000000000000000000                    N                                                                                                                                                                                                                                   
01E0000010000023000000000000000420000RF000000000004220171101201811010100000000000000000                                                                                                                                                                                                                                                                                                                                                                                                                                                                                                                                                                                                                                                                                                                                                                                                                                                                                                                                                 
02E000001000002300000000000000042                                                            F00030556646800000000000999999999983                                                 RUA ATALAIA                              VILA GOMES      RIBEIRAO PIRES09403150SP            5                     RG                           01BRASIL                                                                F00030556646800000000000999999999983                                                 RUA ATALAIA                              VILA GOMES      RIBEIRAO PIRES09403150SP            5                     RG                           01BRASIL                                                                                                                                                                                                                                                                                                                                                                                 
08E0000010000023000000000000000420000010000000000003100000000000000000                              0000000000000000000000                                                                                         09403150                                       RUA ATALAIA                                                                           RIBEIRAO PIRES                    VILA GOMES100030556646800                                                                                                                                                                                                                                                                                                                      010000000000000000000000000000000000000                    N                                                                                                                                                                                                                                   
01E0000010000024000000000000000030000RF000000000000320171101201811010100000000000000000                                                                                                                                                                                                                                                                                                                                                                                                                                                                                                                                                                                                                                                                                                                                                                                                                                                                                                                                                 
02E000001000002400000000000000003                                                            F00030556646800000000000999999999983                                                 RUA ATALAIA                              VILA GOMES      RIBEIRAO PIRES09403150SP            5                     RG                           01BRASIL                                                                F00030556646800000000000999999999983                                                 RUA ATALAIA                              VILA GOMES      RIBEIRAO PIRES09403150SP            5                     RG                           01BRASIL                                                                                                                                                                                                                                                                                                                                                                                 
08E0000010000024000000000000000030000010000000000003200000000000000000                              0000000000000000000000                                                                                         09403150                                       RUA ATALAIA                                                                           RIBEIRAO PIRES                    VILA GOMES100030556646800                                                                                                                                                                                                                                                                                                                      010000000000000000000000000000000000000                    N                                                                                                                                                                                                                                   
01E0000010000025000000000000000030000RF000000000000320171101201811010100000000000000000                                                                                                                                                                                                                                                                                                                                                                                                                                                                                                                                                                                                                                                                                                                                                                                                                                                                                                                                                 
02E000001000002500000000000000003                                                            F00030556646800000000000999999999983                                                 RUA ATALAIA                              VILA GOMES      RIBEIRAO PIRES09403150SP            5                     RG                           01BRASIL                                                                F00030556646800000000000999999999983                                                 RUA ATALAIA                              VILA GOMES      RIBEIRAO PIRES09403150SP            5                     RG                           01BRASIL                                                                                                                                                                                                                                                                                                                                                                                 
08E0000010000025000000000000000030000010000000000003200000000000000000                              0000000000000000000000                                                                                         09403150                                       RUA ATALAIA                                                                           RIBEIRAO PIRES                    VILA GOMES100030556646800                                                                                                                                                                                                                                                                                                                      010000000000000000000000000000000000000                    N                                                                                                                                                                                                                                   
01E0000010000026000000000000000030000RF000000000000320171101201811010100000000000000000                                                                                                                                                                                                                                                                                                                                                                                                                                                                                                                                                                                                                                                                                                                                                                                                                                                                                                                                                 
02E000001000002600000000000000003                                                            F00030556646800000000000999999999983                                                 RUA ATALAIA                              VILA GOMES      RIBEIRAO PIRES09403150SP            5                     RG                           01BRASIL                                                                F00030556646800000000000999999999983                                                 RUA ATALAIA                              VILA GOMES      RIBEIRAO PIRES09403150SP            5                     RG                           01BRASIL                                                                                                                                                                                                                                                                                                                                                                                 
08E0000010000026000000000000000030000010000000000003200000000000000000                              0000000000000000000000                                                                                         09403150                                       RUA ATALAIA                                                                           RIBEIRAO PIRES                    VILA GOMES100030556646800                                                                                                                                                                                                                                                                                                                      010000000000000000000000000000000000000                    N                                                                                                                                                                                                                                   
99E000001000008000000260000078                                                                                                                                                                                                                                                                                                                                                                                                                                                                                                                                                                                                                                                                                                                                                                                                                                                                                                                                                                                                          