00E000025000000116/02/20180008267567SIS SOLUCOES INTEGRADAS      S00000100000000000003200000100000030                                                                                                                                                                                                                                                                                                                                                                                                                                                                                                                                                                                                                                                                                                                                                                                                                                                                                                                                   
01E0000250000001000000000000000370000RF000000000003705102017051020180100000000000000000                                                                                                                                                                                                                                                                                                                                                                                                                                                                                                                                                                                                                                                                                                                                                                                                                                                                                                                                                 
02E000025000000100000000000000037                                     CARLOS DANILO QUINELATOF00030556646800000000001999999999983                                                 RUA ATALAIA         9         0          VILA GOMES      RIBEIRAO PIRES09403150SP            5                     RG             0             01BRASIL                                         CARLOS DANILO QUINELATOF00030556646800000000001999999999983                                                 RUA ATALAIA         9         0          VILA GOMES      RIBEIRAO PIRES09403150SP            5                     RG             0             01BRASIL                                                                                                                                                                                                                                                                                                                                                                                 
08E0000250000001000000000000000370000010000000000001800000000005102017                              0000000000000000004100                                                                                         09403150                                       RUA ATALAIA        9                                                 0                RIBEIRAO PIRES                    VILA GOMES100030556646800                 CARLOS DANILO QUINELATO                                                                                                          SIS BENEFICIOS                                                                                                                                                      010000000000000000000000000000000000000                    N                                                                                                                                                                                                                                   
01E0000250000002000000000001000480000RF000000010004814092017140920180100000000000000000                                                                                                                                                                                                                                                                                                                                                                                                                                                                                                                                                                                                                                                                                                                                                                                                                                                                                                                                                 
02E000025000000200000000000100048                                     CARLOS DANILO QUINELATOF00000000000000000000001999999999983                                                 RUA ATALAIA         9         0          VILA GOMES                  SP09403150SP  18996422205                     RG             0  0          01BRASIL                                         CARLOS DANILO QUINELATOF00000000000000000000001999999999983                                                 RUA ATALAIA         9         0          VILA GOMES                  SP09403150SP  18996422205                     RG             0  0          01BRASIL                                                                                                                                                                                                                                                                                                                                                                                 
08E0000250000002000000000001000480000010000000000001900000000005102017                              0000000000000000034000                                                                                         09403150                                       RUA ATALAIA        9                                                 0                            SP                    VILA GOMES100000000000000                 CARLOS DANILO QUINELATO                                                                                                           ROUBO E FURTO                                                                                                                                                      010003500000000000000140920171899642220                    N                                                                                                                                                                                                                                   
01E0000250000003000000000000000140000RF000000000001405102017051020180100000000000000000                                                                                                                                                                                                                                                                                                                                                                                                                                                                                                                                                                                                                                                                                                                                                                                                                                                                                                                                                 
02E000025000000300000000000000014                                     CARLOS DANILO QUINELATOF00000000000000000000001999999999983                                                 RUA ATALAIA         9                    VILA GOMES      RIBEIRAO PIRES09403150SP            5                     RG             0             01BRASIL                                         CARLOS DANILO QUINELATOF00000000000000000000001999999999983                                                 RUA ATALAIA         9                    VILA GOMES      RIBEIRAO PIRES09403150SP            5                     RG             0             01BRASIL                                                                                                                                                                                                                                                                                                                                                                                 
08E0000250000003000000000000000140000010000000000002000000000005102017                              0000000000000000009300                                                                                         09403150                                       RUA ATALAIA        9                                                                  RIBEIRAO PIRES                    VILA GOMES100000000000000                 CARLOS DANILO QUINELATO                                                                                      PROGRAMA SIS DE SOLUCOES INDICACAO                                                                                                                                                      010000000000000000000000000000000000000                    N                                                                                                                                                                                                                                   
01E0000250000004000000000000000410000RF000000000004109102017091020180100000000000000000                                                                                                                                                                                                                                                                                                                                                                                                                                                                                                                                                                                                                                                                                                                                                                                                                                                                                                                                                 
02E000025000000400000000000000041                                     CARLOS DANILO QUINELATOF00030556646800000000001999999999983                                                 RUA ATALAIA         9         0          VILA GOMES      RIBEIRAO PIRES09403150SP            5                     RG             0             01BRASIL                                         CARLOS DANILO QUINELATOF00030556646800000000001999999999983                                                 RUA ATALAIA         9         0          VILA GOMES      RIBEIRAO PIRES09403150SP            5                     RG             0             01BRASIL                                                                                                                                                                                                                                                                                                                                                                                 
08E0000250000004000000000000000410000010000000000002400000000009102017                              0000000000000000003500                                                                                         09403150                                       RUA ATALAIA        9                                                 0                RIBEIRAO PIRES                    VILA GOMES100030556646800                 CARLOS DANILO QUINELATO                                                                                                          SIS BENEFICIOS                                                                                                                                                      010000000000000000000000000000000000000                    N                                                                                                                                                                                                                                   
01E0000250000005000000000001000490000RF000000010004914092017140920180100000000000000000                                                                                                                                                                                                                                                                                                                                                                                                                                                                                                                                                                                                                                                                                                                                                                                                                                                                                                                                                 
02E000025000000500000000000100049                                     CARLOS DANILO QUINELATOF00000000000000000000001999999999983                                                 RUA ATALAIA         9         0          VILA GOMES                  SP09403150SP  11482415325                     RG             0  0          01BRASIL                                         CARLOS DANILO QUINELATOF00000000000000000000001999999999983                                                 RUA ATALAIA         9         0          VILA GOMES                  SP09403150SP  11482415325                     RG             0  0          01BRASIL                                                                                                                                                                                                                                                                                                                                                                                 
08E0000250000005000000000001000490000010000000000002500000000027102017                              0000000000000000052100                                                                                         09403150                                       RUA ATALAIA        9                                                 0                            SP                    VILA GOMES100000000000000                 CARLOS DANILO QUINELATO                                                                                                           ROUBO E FURTO                                                                MODELO                                                                                010003200000000000000140920171148241532                    N                                                                                                                                                                                                                                   
01E0000250000006000000000001000500000RF000000010005020102017201020180100000000000000000                                                                                                                                                                                                                                                                                                                                                                                                                                                                                                                                                                                                                                                                                                                                                                                                                                                                                                                                                 
02E000025000000600000000000100050                                     CARLOS DANILO QUINELATOF00000000000000000000001999999999983                                                 RUA ATALAIA         9         0          VILA GOMES                  SP09403150SP            5                     RG             0  0          01BRASIL                                         CARLOS DANILO QUINELATOF00000000000000000000001999999999983                                                 RUA ATALAIA         9         0          VILA GOMES                  SP09403150SP            5                     RG             0  0          01BRASIL                                                                                                                                                                                                                                                                                                                                                                                 
08E0000250000006000000000001000500000010000000000002600000000027102017                              0000000000000000034000                                                                                         09403150                                       RUA ATALAIA        9                                                 0                            SP                    VILA GOMES100000000000000                 CARLOS DANILO QUINELATO                                                                                                           ROUBO E FURTO                                                                                                                                                      010003500000000000000201020170000000000                    N                                                                                                                                                                                                                                   
01E0000250000007000000000000000010000RF000000000000130102017301020180100000000000000000                                                                                                                                                                                                                                                                                                                                                                                                                                                                                                                                                                                                                                                                                                                                                                                                                                                                                                                                                 
02E000025000000700000000000000001                                     CARLOS DANILO QUINELATOF00030556646800140919811999999999983                                                 RUA ATALAIA         9                    VILA GOMES      RIBEIRAO PIRES09403150SP  11203824435                     RG             0             01BRASIL                                         CARLOS DANILO QUINELATOF00030556646800140919811999999999983                                                 RUA ATALAIA         9                    VILA GOMES      RIBEIRAO PIRES09403150SP  11203824435                     RG             0             01BRASIL                                                                                                                                                                                                                                                                                                                                                                                 
08E0000250000007000000000000000010000010000000000002700000000030102017                              0000000000000000001800                                                                                         09403150                                       RUA ATALAIA        9                                                                  RIBEIRAO PIRES                    VILA GOMES100030556646800                 CARLOS DANILO QUINELATO                                                                                                                  ODONTO                                                                                                                                                      010000000000000000000000000001120382443                    N                                                                                                                                                                                                                                   
01E0000250000008000000000000000020000RF000000000000230102017301020180100000000000000000                                                                                                                                                                                                                                                                                                                                                                                                                                                                                                                                                                                                                                                                                                                                                                                                                                                                                                                                                 
02E000025000000800000000000000002                                     CARLOS DANILO QUINELATOF00030556646800140919811999999999983                                                 RUA ATALAIA         9                    VILA GOMES      RIBEIRAO PIRES09403150SP            5                     RG             0             01BRASIL                                         CARLOS DANILO QUINELATOF00030556646800140919811999999999983                                                 RUA ATALAIA         9                    VILA GOMES      RIBEIRAO PIRES09403150SP            5                     RG             0             01BRASIL                                                                                                                                                                                                                                                                                                                                                                                 
08E0000250000008000000000000000020000010000000000002800000000030102017                              0000000000000000001800                                                                                         09403150                                       RUA ATALAIA        9                                                                  RIBEIRAO PIRES                    VILA GOMES100030556646800                 CARLOS DANILO QUINELATO                                                                                                                  ODONTO                                                                                                                                                      010000000000000000000000000000000000000                    N                                                                                                                                                                                                                                   
01E0000250000009000000000000000390000RF000000000003909102017091020180100000000000000000                                                                                                                                                                                                                                                                                                                                                                                                                                                                                                                                                                                                                                                                                                                                                                                                                                                                                                                                                 
02E000025000000900000000000000039                                     CARLOS DANILO QUINELATOF00030556646800000000001999999999983                                                 RUA ATALAIA         9         0          VILA GOMES      RIBEIRAO PIRES09403150SP            5                     RG             0             01BRASIL                                         CARLOS DANILO QUINELATOF00030556646800000000001999999999983                                                 RUA ATALAIA         9         0          VILA GOMES      RIBEIRAO PIRES09403150SP            5                     RG             0             01BRASIL                                                                                                                                                                                                                                                                                                                                                                                 
08E0000250000009000000000000000390000010000000000002200000000009102017                              0000000000000000004100                                                                                         09403150                                       RUA ATALAIA        9                                                 0                RIBEIRAO PIRES                    VILA GOMES100030556646800                 CARLOS DANILO QUINELATO                                                                                                          SIS BENEFICIOS                                                                                                                                                      010000000000000000000000000000000000000                    N                                                                                                                                                                                                                                   
01E0000250000010000000000000000400000RF000000000004009102017091020180100000000000000000                                                                                                                                                                                                                                                                                                                                                                                                                                                                                                                                                                                                                                                                                                                                                                                                                                                                                                                                                 
02E000025000001000000000000000040                                     CARLOS DANILO QUINELATOF00030556646800000000001999999999983                                                 RUA ATALAIA         9         0          VILA GOMES      RIBEIRAO PIRES09403150SP            1                     RG             0             01BRASIL                                         CARLOS DANILO QUINELATOF00030556646800000000001999999999983                                                 RUA ATALAIA         9         0          VILA GOMES      RIBEIRAO PIRES09403150SP            1                     RG             0             01BRASIL                                                                                                                                                                                                                                                                                                                                                                                 
08E0000250000010000000000000000400000010000000000002300000000009102017                              0000000000000000003500                                                                                         09403150                                       RUA ATALAIA        9                                                 0                RIBEIRAO PIRES                    VILA GOMES100030556646800                 CARLOS DANILO QUINELATO                                                                                                          SIS BENEFICIOS                                                                                                                                                      010000000000000000000000000000000000000                    N                                                                                                                                                                                                                                   
99E000025000003200000100000030                                                                                                                                                                                                                                                                                                                                                                                                                                                                                                                                                                                                                                                                                                                                                                                                                                                                                                                                                                                                          