H0000000001000000000100294I0000000004E0000000000A00000000000000000000F
40001424081                     0                    0000000037             10IDANILO QUINELATO                                                                2017100520181005              30556646800RUA ATALAIA                                                                    SPRIBEIRAO PIRES                    VILA GOMES                         09403-150                     RUA ATALAIA                                                                    SPRIBEIRAO PIRES                    VILA GOMES                         09403-150                     XXXXXXXXXX                              1969                                                                                                                                                                                                                                                                                                                                                                                                      00000000M                                                  19901990
40001424081                     0                    0000000041             16IDANILO QUINELATO                                                                2017100920181009              30556646800RUA ATALAIA                                                                    SPRIBEIRAO PIRES                    VILA GOMES                         09403-150                     RUA ATALAIA                                                                    SPRIBEIRAO PIRES                    VILA GOMES                         09403-150                     XXXXXXXXXX                              1969                                                                                                                                                                                                                                                                                                                                                                                                      00000000M                                                  19901990
40001424081                     0                    0000000001             19IODONTO                                                                          2017103020181030              30556646800RUA ATALAIA                                                                    SPRIBEIRAO PIRES                    0                                  09403-150 1120382443          RUA ATALAIA                                                                    SPRIBEIRAO PIRES                    0                                  09403-150 1120382443          XXXXXXXXXX                              1969                                                                                                                                                                                                                                                                                                                                                                                                      00000000M                                                  19901990
40001424081                     0                    0000000002             20IODONTO                                                                          2017103020181030              30556646800RUA ATALAIA                                                                    SPRIBEIRAO PIRES                    0                                  09403-150                     RUA ATALAIA                                                                    SPRIBEIRAO PIRES                    0                                  09403-150                     XXXXXXXXXX                              1969                                                                                                                                                                                                                                                                                                                                                                                                      00000000M                                                  19901990
