H0000000001000000000100294I0000000004E0000000000A00000000000000000000F
40001424081                     00000000037                    10             IDANILO QUINELATO                                                                2017100520181005              30556646800RUA ATALAIA                                                                     SPRIBEIRAO PIRES                     VILA GOMES                         09403150                                                                                                                                                                                                            XXXXXXXXXX                              1969                                                                                                                                                                                                                                                                                                                                                                                                      00000000M                                                  19901990
40001424081                     00000000041                    16             IDANILO QUINELATO                                                                2017100920181009              30556646800RUA ATALAIA                                                                     SPRIBEIRAO PIRES                     VILA GOMES                         09403150                                                                                                                                                                                                            XXXXXXXXXX                              1969                                                                                                                                                                                                                                                                                                                                                                                                      00000000M                                                  19901990
40001424081                     00000000001                    19             IODONTO                                                                          2017103020181030              30556646800RUA ATALAIA                                                                     SPRIBEIRAO PIRES                     VILA GOMES                         09403150  1120382443                                                                                                                                                                                                XXXXXXXXXX                              1969                                                                                                                                                                                                                                                                                                                                                                                                      00000000M                                                  19901990
40001424081                     00000000002                    20             IODONTO                                                                          2017103020181030              30556646800RUA ATALAIA                                                                     SPRIBEIRAO PIRES                     VILA GOMES                         09403150                                                                                                                                                                                                            XXXXXXXXXX                              1969                                                                                                                                                                                                                                                                                                                                                                                                      00000000M                                                  19901990
